{
  "contractName": "ItemManager",
  "abi": [
    {
      "anonymous": false,
      "inputs": [
        {
          "indexed": false,
          "internalType": "uint256",
          "name": "_itemIndex",
          "type": "uint256"
        },
        {
          "indexed": false,
          "internalType": "uint256",
          "name": "step",
          "type": "uint256"
        },
        {
          "indexed": false,
          "internalType": "address",
          "name": "_itemAddress",
          "type": "address"
        }
      ],
      "name": "SupplyChainStep",
      "type": "event"
    },
    {
      "inputs": [],
      "name": "isOwner",
      "outputs": [
        {
          "internalType": "bool",
          "name": "",
          "type": "bool"
        }
      ],
      "stateMutability": "view",
      "type": "function",
      "constant": true
    },
    {
      "inputs": [
        {
          "internalType": "uint256",
          "name": "",
          "type": "uint256"
        }
      ],
      "name": "items",
      "outputs": [
        {
          "internalType": "contract Item",
          "name": "_item",
          "type": "address"
        },
        {
          "internalType": "string",
          "name": "_identifier",
          "type": "string"
        },
        {
          "internalType": "uint256",
          "name": "_itemPrice",
          "type": "uint256"
        },
        {
          "internalType": "enum ItemManager.SupplyChainState",
          "name": "_state",
          "type": "uint8"
        }
      ],
      "stateMutability": "view",
      "type": "function",
      "constant": true
    },
    {
      "inputs": [
        {
          "internalType": "string",
          "name": "_identifier",
          "type": "string"
        },
        {
          "internalType": "uint256",
          "name": "_itemPrice",
          "type": "uint256"
        }
      ],
      "name": "createItem",
      "outputs": [],
      "stateMutability": "nonpayable",
      "type": "function"
    },
    {
      "inputs": [
        {
          "internalType": "uint256",
          "name": "_itemIndex",
          "type": "uint256"
        }
      ],
      "name": "triggerPayment",
      "outputs": [],
      "stateMutability": "payable",
      "type": "function",
      "payable": true
    },
    {
      "inputs": [
        {
          "internalType": "uint256",
          "name": "_itemIndex",
          "type": "uint256"
        }
      ],
      "name": "triggerDelivery",
      "outputs": [],
      "stateMutability": "nonpayable",
      "type": "function"
    },
    {
      "inputs": [],
      "name": "withdraw",
      "outputs": [],
      "stateMutability": "nonpayable",
      "type": "function"
    }
  ],
  "bytecode": "0x608060405234801561001057600080fd5b50336000806101000a81548173ffffffffffffffffffffffffffffffffffffffff021916908373ffffffffffffffffffffffffffffffffffffffff160217905550611d6e806100606000396000f3fe6080604052600436106200005c5760003560e01c80633ccfd60b1462000061578063800fb83f146200007b5780638c551742146200009b5780638f32d59b14620000c9578063bfb231d214620000f9578063cd31831e1462000140575b600080fd5b3480156200006e57600080fd5b50620000796200016e565b005b62000099600480360381019062000093919062000b09565b62000322565b005b348015620000a857600080fd5b50620000c76004803603810190620000c1919062000c9d565b62000504565b005b348015620000d657600080fd5b50620000e162000750565b604051620000f0919062000d20565b60405180910390f35b3480156200010657600080fd5b506200012560048036038101906200011f919062000b09565b620007a7565b60405162000137949392919062000ee2565b60405180910390f35b3480156200014d57600080fd5b506200016c600480360381019062000166919062000b09565b62000894565b005b60008054906101000a900473ffffffffffffffffffffffffffffffffffffffff1673ffffffffffffffffffffffffffffffffffffffff163373ffffffffffffffffffffffffffffffffffffffff1614620001ff576040517f08c379a0000000000000000000000000000000000000000000000000000000008152600401620001f69062000f86565b60405180910390fd5b6000479050600081116200024a576040517f08c379a0000000000000000000000000000000000000000000000000000000008152600401620002419062000ff8565b60405180910390fd5b60008060009054906101000a900473ffffffffffffffffffffffffffffffffffffffff1673ffffffffffffffffffffffffffffffffffffffff168260405162000293906200104f565b60006040518083038185875af1925050503d8060008114620002d2576040519150601f19603f3d011682016040523d82523d6000602084013e620002d7565b606091505b50509050806200031e576040517f08c379a00000000000000000000000000000000000000000000000000000000081526004016200031590620010b6565b60405180910390fd5b5050565b34600160008381526020019081526020016000206002015411156200037e576040517f08c379a0000000000000000000000000000000000000000000000000000000008152600401620003759062001128565b60405180910390fd5b6000600281111562000395576200039462000e62565b5b6001600083815260200190815260200160002060030160009054906101000a900460ff166002811115620003ce57620003cd62000e62565b5b1462000411576040517f08c379a000000000000000000000000000000000000000000000000000000000815260040162000408906200119a565b60405180910390fd5b600180600083815260200190815260200160002060030160006101000a81548160ff021916908360028111156200044d576200044c62000e62565b5b02179055507fa4035636e99f06b7651a604c1019fa4e8779fe68ef27eeb74dff2de348f6199b60025460016000600254815260200190815260200160002060030160009054906101000a900460ff166002811115620004b157620004b062000e62565b5b6001600085815260200190815260200160002060000160009054906101000a900473ffffffffffffffffffffffffffffffffffffffff16604051620004f993929190620011e1565b60405180910390a150565b60008054906101000a900473ffffffffffffffffffffffffffffffffffffffff1673ffffffffffffffffffffffffffffffffffffffff163373ffffffffffffffffffffffffffffffffffffffff161462000595576040517f08c379a00000000000000000000000000000000000000000000000000000000081526004016200058c9062000f86565b60405180910390fd5b60003082600254604051620005aa9062000aac565b620005b89392919062001257565b604051809103906000f080158015620005d5573d6000803e3d6000fd5b5090508060016000600254815260200190815260200160002060000160006101000a81548173ffffffffffffffffffffffffffffffffffffffff021916908373ffffffffffffffffffffffffffffffffffffffff160217905550826001600060025481526020019081526020016000206001019081620006569190620014c0565b508160016000600254815260200190815260200160002060020181905550600060016000600254815260200190815260200160002060030160006101000a81548160ff02191690836002811115620006b357620006b262000e62565b5b02179055507fa4035636e99f06b7651a604c1019fa4e8779fe68ef27eeb74dff2de348f6199b60025460016000600254815260200190815260200160002060030160009054906101000a900460ff16600281111562000717576200071662000e62565b5b836040516200072993929190620011e1565b60405180910390a1600260008154809291906200074690620015d6565b9190505550505050565b60008060009054906101000a900473ffffffffffffffffffffffffffffffffffffffff1673ffffffffffffffffffffffffffffffffffffffff163373ffffffffffffffffffffffffffffffffffffffff1614905090565b60016020528060005260406000206000915090508060000160009054906101000a900473ffffffffffffffffffffffffffffffffffffffff1690806001018054620007f290620012c3565b80601f01602080910402602001604051908101604052809291908181526020018280546200082090620012c3565b8015620008715780601f10620008455761010080835404028352916020019162000871565b820191906000526020600020905b8154815290600101906020018083116200085357829003601f168201915b5050505050908060020154908060030160009054906101000a900460ff16905084565b60008054906101000a900473ffffffffffffffffffffffffffffffffffffffff1673ffffffffffffffffffffffffffffffffffffffff163373ffffffffffffffffffffffffffffffffffffffff161462000925576040517f08c379a00000000000000000000000000000000000000000000000000000000081526004016200091c9062000f86565b60405180910390fd5b600160028111156200093c576200093b62000e62565b5b6001600083815260200190815260200160002060030160009054906101000a900460ff16600281111562000975576200097462000e62565b5b14620009b8576040517f08c379a0000000000000000000000000000000000000000000000000000000008152600401620009af906200119a565b60405180910390fd5b60026001600083815260200190815260200160002060030160006101000a81548160ff02191690836002811115620009f557620009f462000e62565b5b02179055507fa4035636e99f06b7651a604c1019fa4e8779fe68ef27eeb74dff2de348f6199b60025460016000600254815260200190815260200160002060030160009054906101000a900460ff16600281111562000a595762000a5862000e62565b5b6001600085815260200190815260200160002060000160009054906101000a900473ffffffffffffffffffffffffffffffffffffffff1660405162000aa193929190620011e1565b60405180910390a150565b610715806200162483390190565b6000604051905090565b600080fd5b600080fd5b6000819050919050565b62000ae38162000ace565b811462000aef57600080fd5b50565b60008135905062000b038162000ad8565b92915050565b60006020828403121562000b225762000b2162000ac4565b5b600062000b328482850162000af2565b91505092915050565b600080fd5b600080fd5b6000601f19601f8301169050919050565b7f4e487b7100000000000000000000000000000000000000000000000000000000600052604160045260246000fd5b62000b908262000b45565b810181811067ffffffffffffffff8211171562000bb25762000bb162000b56565b5b80604052505050565b600062000bc762000aba565b905062000bd5828262000b85565b919050565b600067ffffffffffffffff82111562000bf85762000bf762000b56565b5b62000c038262000b45565b9050602081019050919050565b82818337600083830152505050565b600062000c3662000c308462000bda565b62000bbb565b90508281526020810184848401111562000c555762000c5462000b40565b5b62000c6284828562000c10565b509392505050565b600082601f83011262000c825762000c8162000b3b565b5b813562000c9484826020860162000c1f565b91505092915050565b6000806040838503121562000cb75762000cb662000ac4565b5b600083013567ffffffffffffffff81111562000cd85762000cd762000ac9565b5b62000ce68582860162000c6a565b925050602062000cf98582860162000af2565b9150509250929050565b60008115159050919050565b62000d1a8162000d03565b82525050565b600060208201905062000d37600083018462000d0f565b92915050565b600073ffffffffffffffffffffffffffffffffffffffff82169050919050565b6000819050919050565b600062000d8862000d8262000d7c8462000d3d565b62000d5d565b62000d3d565b9050919050565b600062000d9c8262000d67565b9050919050565b600062000db08262000d8f565b9050919050565b62000dc28162000da3565b82525050565b600081519050919050565b600082825260208201905092915050565b60005b8381101562000e0457808201518184015260208101905062000de7565b60008484015250505050565b600062000e1d8262000dc8565b62000e29818562000dd3565b935062000e3b81856020860162000de4565b62000e468162000b45565b840191505092915050565b62000e5c8162000ace565b82525050565b7f4e487b7100000000000000000000000000000000000000000000000000000000600052602160045260246000fd5b6003811062000ea55762000ea462000e62565b5b50565b600081905062000eb88262000e91565b919050565b600062000eca8262000ea8565b9050919050565b62000edc8162000ebd565b82525050565b600060808201905062000ef9600083018762000db7565b818103602083015262000f0d818662000e10565b905062000f1e604083018562000e51565b62000f2d606083018462000ed1565b95945050505050565b7f596f7520617265206e6f7420746865206f776e65722100000000000000000000600082015250565b600062000f6e60168362000dd3565b915062000f7b8262000f36565b602082019050919050565b6000602082019050818103600083015262000fa18162000f5f565b9050919050565b7f4e6f2066756e647320746f207769746864726177000000000000000000000000600082015250565b600062000fe060148362000dd3565b915062000fed8262000fa8565b602082019050919050565b60006020820190508181036000830152620010138162000fd1565b9050919050565b600081905092915050565b50565b6000620010376000836200101a565b9150620010448262001025565b600082019050919050565b60006200105c8262001028565b9150819050919050565b7f5769746864726177616c206661696c6564000000000000000000000000000000600082015250565b60006200109e60118362000dd3565b9150620010ab8262001066565b602082019050919050565b60006020820190508181036000830152620010d1816200108f565b9050919050565b7f4f6e6c792066756c6c207061796d656e74732061636365707465640000000000600082015250565b600062001110601b8362000dd3565b91506200111d82620010d8565b602082019050919050565b60006020820190508181036000830152620011438162001101565b9050919050565b7f4974656d206973206675727468657220696e2074686520636861696e00000000600082015250565b600062001182601c8362000dd3565b91506200118f826200114a565b602082019050919050565b60006020820190508181036000830152620011b58162001173565b9050919050565b6000620011c98262000d3d565b9050919050565b620011db81620011bc565b82525050565b6000606082019050620011f8600083018662000e51565b62001207602083018562000e51565b620012166040830184620011d0565b949350505050565b60006200122b8262000d67565b9050919050565b60006200123f826200121e565b9050919050565b620012518162001232565b82525050565b60006060820190506200126e600083018662001246565b6200127d602083018562000e51565b6200128c604083018462000e51565b949350505050565b7f4e487b7100000000000000000000000000000000000000000000000000000000600052602260045260246000fd5b60006002820490506001821680620012dc57607f821691505b602082108103620012f257620012f162001294565b5b50919050565b60008190508160005260206000209050919050565b60006020601f8301049050919050565b600082821b905092915050565b6000600883026200135c7fffffffffffffffffffffffffffffffffffffffffffffffffffffffffffffffff826200131d565b6200136886836200131d565b95508019841693508086168417925050509392505050565b6000620013a16200139b620013958462000ace565b62000d5d565b62000ace565b9050919050565b6000819050919050565b620013bd8362001380565b620013d5620013cc82620013a8565b8484546200132a565b825550505050565b600090565b620013ec620013dd565b620013f9818484620013b2565b505050565b5b81811015620014215762001415600082620013e2565b600181019050620013ff565b5050565b601f82111562001470576200143a81620012f8565b62001445846200130d565b8101602085101562001455578190505b6200146d62001464856200130d565b830182620013fe565b50505b505050565b600082821c905092915050565b6000620014956000198460080262001475565b1980831691505092915050565b6000620014b0838362001482565b9150826002028217905092915050565b620014cb8262000dc8565b67ffffffffffffffff811115620014e757620014e662000b56565b5b620014f38254620012c3565b6200150082828562001425565b600060209050601f83116001811462001538576000841562001523578287015190505b6200152f8582620014a2565b8655506200159f565b601f1984166200154886620012f8565b60005b8281101562001572578489015182556001820191506020850194506020810190506200154b565b868310156200159257848901516200158e601f89168262001482565b8355505b6001600288020188555050505b505050505050565b7f4e487b7100000000000000000000000000000000000000000000000000000000600052601160045260246000fd5b6000620015e38262000ace565b91507fffffffffffffffffffffffffffffffffffffffffffffffffffffffffffffffff8203620016185762001617620015a7565b5b60018201905091905056fe608060405234801561001057600080fd5b5060405161071538038061071583398181016040528101906100329190610134565b816000819055508060028190555082600360006101000a81548173ffffffffffffffffffffffffffffffffffffffff021916908373ffffffffffffffffffffffffffffffffffffffff160217905550505050610187565b600080fd5b600073ffffffffffffffffffffffffffffffffffffffff82169050919050565b60006100b98261008e565b9050919050565b60006100cb826100ae565b9050919050565b6100db816100c0565b81146100e657600080fd5b50565b6000815190506100f8816100d2565b92915050565b6000819050919050565b610111816100fe565b811461011c57600080fd5b50565b60008151905061012e81610108565b92915050565b60008060006060848603121561014d5761014c610089565b5b600061015b868287016100e9565b935050602061016c8682870161011f565b925050604061017d8682870161011f565b9150509250925092565b61057f806101966000396000f3fe6080604052600436106100385760003560e01c80632986c0e5146102425780633c8da5881461026d57806389794d001461029857610240565b3661024057600060015414610082576040517f08c379a000000000000000000000000000000000000000000000000000000000815260040161007990610332565b60405180910390fd5b34600054146100c6576040517f08c379a00000000000000000000000000000000000000000000000000000000081526004016100bd9061039e565b60405180910390fd5b34600160008282546100d891906103f7565b925050819055506000600360009054906101000a900473ffffffffffffffffffffffffffffffffffffffff1673ffffffffffffffffffffffffffffffffffffffff163460025460405160240161012e919061043a565b6040516020818303038152906040527f800fb83f000000000000000000000000000000000000000000000000000000007bffffffffffffffffffffffffffffffffffffffffffffffffffffffff19166020820180517bffffffffffffffffffffffffffffffffffffffffffffffffffffffff83818316178352505050506040516101b891906104c6565b60006040518083038185875af1925050503d80600081146101f5576040519150601f19603f3d011682016040523d82523d6000602084013e6101fa565b606091505b505090508061023e576040517f08c379a000000000000000000000000000000000000000000000000000000000815260040161023590610529565b60405180910390fd5b005b005b34801561024e57600080fd5b506102576102c3565b604051610264919061043a565b60405180910390f35b34801561027957600080fd5b506102826102c9565b60405161028f919061043a565b60405180910390f35b3480156102a457600080fd5b506102ad6102cf565b6040516102ba919061043a565b60405180910390f35b60025481565b60005481565b60015481565b600082825260208201905092915050565b7f4974656d20697320616c72656164792070616964000000000000000000000000600082015250565b600061031c6014836102d5565b9150610327826102e6565b602082019050919050565b6000602082019050818103600083015261034b8161030f565b9050919050565b7f4f6e6c792066756c6c207061796d656e74732061726520616c6c6f7765642100600082015250565b6000610388601f836102d5565b915061039382610352565b602082019050919050565b600060208201905081810360008301526103b78161037b565b9050919050565b6000819050919050565b7f4e487b7100000000000000000000000000000000000000000000000000000000600052601160045260246000fd5b6000610402826103be565b915061040d836103be565b9250828201905080821115610425576104246103c8565b5b92915050565b610434816103be565b82525050565b600060208201905061044f600083018461042b565b92915050565b600081519050919050565b600081905092915050565b60005b8381101561048957808201518184015260208101905061046e565b60008484015250505050565b60006104a082610455565b6104aa8185610460565b93506104ba81856020860161046b565b80840191505092915050565b60006104d28284610495565b915081905092915050565b7f4c6f772d6c6576656c2063616c6c206661696c65640000000000000000000000600082015250565b60006105136015836102d5565b915061051e826104dd565b602082019050919050565b6000602082019050818103600083015261054281610506565b905091905056fea2646970667358221220138843a5ee443ae5b274af0026cdd5936b8c8c48c570ec5e2ea1d7388b2da6ad64736f6c63430008120033a2646970667358221220ec8f4b241f1c4a7be6fac623036e605a1da4a17418e6bac2fd5339480643765664736f6c63430008120033",
  "immutableReferences": {},
  "source": "// SPDX-License-Identifier: MIT\npragma solidity ^0.8;\nimport \"./Ownable.sol\";\nimport \"./Item.sol\";\n\ncontract ItemManager is Ownable {\n\n    enum SupplyChainState{\n        Created, \n        Paid, \n        Delivered\n        }\n\n    struct S_Item {\n        Item _item;\n        string _identifier;\n        uint _itemPrice;\n        ItemManager.SupplyChainState _state;\n    }\n\n    mapping(uint => S_Item) public items;\n    uint itemIndex;\n\n    event SupplyChainStep(uint _itemIndex, uint step, address _itemAddress);\n\n    function createItem(string memory _identifier, uint _itemPrice) public onlyOwner {\n        Item item = new Item(this, _itemPrice, itemIndex);\n        items[itemIndex]._item = item;\n        items[itemIndex]._identifier = _identifier;\n        items[itemIndex]._itemPrice = _itemPrice;\n        items[itemIndex]._state = SupplyChainState.Created;\n\n        emit SupplyChainStep(itemIndex, uint(items[itemIndex]._state), address(item));\n\n        itemIndex++;\n    }\n\n    function triggerPayment(uint _itemIndex) payable  public {\n        require(items[_itemIndex]._itemPrice <= msg.value, \"Only full payments accepted\");\n        require(items[_itemIndex]._state == SupplyChainState.Created, \"Item is further in the chain\");\n\n        items[_itemIndex]._state = SupplyChainState.Paid;\n\n        emit SupplyChainStep(itemIndex, uint(items[itemIndex]._state), address(items[_itemIndex]._item));\n\n    }\n\n    function triggerDelivery(uint _itemIndex) public onlyOwner {\n        require(items[_itemIndex]._state == SupplyChainState.Paid, \"Item is further in the chain\");\n        items[_itemIndex]._state = SupplyChainState.Delivered;\n\n        emit SupplyChainStep(itemIndex, uint(items[itemIndex]._state), address(items[_itemIndex]._item));\n    }\n\n    function withdraw() public onlyOwner {\n        uint balance = address(this).balance;\n        require(balance > 0, \"No funds to withdraw\");\n\n        (bool success, ) = _owner.call{value: balance}(\"\");\n        require(success, \"Withdrawal failed\");\n    }\n\n}",
  "sourcePath": "/Users/mohammadarmaan7786/Documents/Web3/react-box/truffle/contracts/ItemManager.sol",
  "compiler": {
    "name": "solc",
    "version": "0.8.18+commit.87f61d96.Emscripten.clang"
  },
  "schemaVersion": "3.4.16",
  "updatedAt": "2025-09-06T15:36:28.344Z",
  "networkType": "ethereum",
  "devdoc": {
    "kind": "dev",
    "methods": {},
    "version": 1
  },
  "userdoc": {
    "kind": "user",
    "methods": {},
    "version": 1
  }
}